:020000040000FA
:10000000B0020020650100008501000087010000AA
:1000100000000000000000000000000000000000E0
:100020000000000000000000000000008901000046
:1000300000000000000000008B0100003D100000E7
:100040008F0100008F0100008F0100008F01000070
:100050008F0100008F0100008F0100008F01000060
:100060008F0100008F0100008F0100008F01000050
:100070008F010000F91100008F0100008F010000C6
:100080008F0100008F0100008F0100008F01000030
:100090008F0100008F0100008F0100008F01000020
:1000A0008F0100008F0100008F0100008F01000010
:1000B0008F0100008F0100008F0100008F01000000
:1000C00000F002F800F03EF80CA030C80838241800
:1000D0002D18A246671EAB4654465D46AC4201D180
:1000E00000F030F87E460F3E0FCCB6460126334274
:1000F00000D0FB1AA246AB463343184780130000DA
:10010000A0130000103A02D378C878C1FAD8520779
:1001100001D330C830C101D504680C6070470000BD
:100120000023002400250026103A01D378C1FBD813
:10013000520700D330C100D50B6070471FB51FBDFB
:1001400010B510BD00F0F0F81146FFF7F7FF01F011
:100150002FF900F008F903B4FFF7F2FF03BC00F039
:100160000DF900000D480E4901600E4901600E496D
:1001700001600E4A0E491160002101600D48804760
:100180000D480047FEE7FEE7FEE7FEE7FEE7FEE775
:100190000A480B49094A0B4B704700000001005008
:1001A00059000000160000008800000024000050E4
:1001B000A55A000019110000C1000000B000002085
:1001C000B0020020B0000020002203098B422CD393
:1001D000030A8B4211D300239C464EE003460B4397
:1001E0003CD4002243088B4231D303098B421CD3F9
:1001F000030A8B4201D394463FE0C3098B4201D3EB
:10020000CB01C01A524183098B4201D38B01C01A22
:10021000524143098B4201D34B01C01A5241030999
:100220008B4201D30B01C01A5241C3088B4201D348
:10023000CB00C01A524183088B4201D38B00C01AF5
:10024000524143088B4201D34B00C01A5241411A1C
:1002500000D201465241104670475DE0CA0F00D0FF
:100260004942031000D34042534000229C460309F8
:100270008B422DD3030A8B4212D3FC22890112BA7E
:10028000030A8B420CD3890192118B4208D3890156
:1002900092118B4204D389013AD0921100E089096E
:1002A000C3098B4201D3CB01C01A524183098B424F
:1002B00001D38B01C01A524143098B4201D34B0138
:1002C000C01A524103098B4201D30B01C01A52419B
:1002D000C3088B4201D3CB00C01A524183088B4222
:1002E00001D38B00C01A5241D9D243088B4201D3AB
:1002F0004B00C01A5241411A00D201466346524196
:100300005B10104601D34042002B00D54942704794
:1003100063465B1000D3404201B50020C046C04692
:1003200002BD704770477047754600F023F8AE462F
:10033000050069465346C008C000854618B020B580
:10034000FFF726FF60BC00274908B6460026C0C557
:10035000C0C5C0C5C0C5C0C5C0C5C0C5C0C5403D7D
:1003600049008D4670470446C046C0462046FFF708
:10037000F2FE0000004870474C00002001491820A0
:10038000ABBEFEE7260002007047000010B505482E
:1003900000F068F8032212040021024800F010FA6D
:1003A00010BD00001CFE232610B516484068012130
:1003B000090488431349486008464068012109043C
:1003C00008431049486005200007406BFF210231B7
:1003D00088430521090748630846406B012108430B
:1003E000052109074863012308220021064800F07F
:1003F0000DF80548006A01210843034908620120FD
:10040000086310BD4040005000000E4030B5044667
:100410000748006A074D284008431043044D2862EE
:100420002846406A000A00021843686230BD000096
:1004300000000E40F3FBFFFF10B5012240210748EA
:1004400000F019FA012240210448403000F013FA6C
:10045000002003498861886310BD0000804000507F
:1004600040420050C10F8900064A89188968C306B6
:10047000DB0E01229A401143C20F9200014BD218A9
:100480009160704700020050F3B583B00C460398AA
:10049000002809D13D48006A0121C90488433B492D
:1004A00008623B48029008E03848006A0121C9040C
:1004B000084336490862374802903748844204D8D6
:1004C0004010844201D9002722E03448844205D8F4
:1004D0004010844202D90127640019E03048844268
:1004E00005D84010844202D30327A40010E00398EB
:1004F000002803D12B482549086202E02A482349F5
:100500000862042000F08EF900F09AF805B0F0BD02
:1005100026492046FFF758FE064624490298FFF771
:1005200053FE05460EE0E807C00F002807D1F0078C
:10053000C00F002803D1022D01D0022E00D102E00D
:100540006D087608EFE700BFB803A91E490208430B
:10055000B11E084301900D48006A010C090401987E
:1005600001430A480162006A0521090488430749DA
:100570000862042000F056F97A1C6A431146029A78
:1005800072431046FFF720FEC0E700000002005053
:10059000001BB7000080510100C2EB0B00E1F50524
:1005A00080F0FA022EC200006FD6000040420F0019
:1005B000024909680143014A116070470002005076
:1005C000FEB5002002901AA0006800901948046A45
:1005D00000132040002801D00020FEBD0120C004EF
:1005E0002040002801D0144D00E0144D01204004AB
:1005F0002040002801D02846EFE703208003204058
:10060000800B69460A5C0192E005C00D861C1F2024
:1006100040022040400A871C019A7A431146AA08EA
:1006200072431046FFF7D0FD800002900298D4E795
:10063000010202040002005000805101001BB700BB
:10064000FEB5002002901AA0006800901948046AC4
:1006500000132040002801D00020FEBD0120C0046E
:100660002040002801D0144D00E0144D012040042A
:100670002040002801D02846EFE7032080032040D7
:10068000800B69460A5C0192E005C00D861C1F20A4
:1006900040022040400A871C019A7A431146AA086A
:1006A00072431046FFF790FD800002900298D4E755
:1006B000010202040002005000805101001BB7003B
:1006C000FEB5002002901AA0006800901948046A44
:1006D00000132040002801D00020FEBD0120C004EE
:1006E0002040002801D0144D00E0144D01204004AA
:1006F0002040002801D02846EFE703208003204057
:10070000800B69460A5C0192E005C00D861C1F2023
:1007100040022040400A871C019A7A431146AA08E9
:1007200072431046FFF750FD800002900298D4E714
:10073000010202040002005000805101001BB700BA
:1007400010B504461048844201D9044603E00F481E
:10075000844200D204460E480068C007C00F00283B
:1007600005D021460020FFF78FFE044605E0214614
:100770000120C004FFF788FE04460021022000F09B
:1007800009F8204610BD000080F0FA0240787D0193
:100790000002005070B504460D4608480069C008C4
:1007A000C00020430549086108468069000900012E
:1007B0002843886100F07EFC70BD000000020050FC
:1007C000F0B50B46002100240025C600360F002E90
:1007D0000FD04600B60FB600114FF4192168C600BD
:1007E000370FC601F60EB7400E46BE431E433146D4
:1007F00021608603360E002E10D00603B60FB60019
:10080000074F0837F51929688603360EF643870522
:10081000FF0EBE400E40164331462960F0BD000079
:1008200010020050064904E00A46491E002A00DC76
:1008300004E0044AD26802408242F5D100BF70470A
:1008400090D003000002005010B50120FFF7B0FE69
:100850000120FFF7E7FF0248FFF772FF10BD00001D
:1008600080F0FA0270B505460C4622461021284653
:1008700000F018F870BD70B5034600200FE00124A9
:1008800084400C40002C09D01C6846000325B5406C
:10089000AC4346001546B5402C431C60401C08285C
:1008A000EDD370BD70B504460D46164600F0BCF899
:1008B0006106080E00F01AF900F0F2F8002801D0E5
:1008C000002070BD284600F011F900F0E9F800287A
:1008D00001D00020F5E7304600F008F900F0E0F81C
:1008E000002801D00020ECE700F0BAF80A2000F060
:1008F00047FD0120E5E7F8B504460D4616461F46BC
:1009000000F092F86106080E00F0F0F800F0C8F868
:10091000002801D00020F8BD284600F0E7F800F0DC
:10092000BFF8002801D00020F5E7304600F0DEF8DF
:1009300000F0B6F8002801D00020ECE7384600F0BF
:10094000D5F800F0ADF8002801D00020E3E700F072
:1009500087F80A2000F014FD0120DCE7F8B5044612
:100960000D4616461F4600F05FF86106080E00F0BF
:10097000BDF800F095F8002801D00020F8BD284609
:1009800000F0B4F800F08CF8002801D00020F5E762
:10099000304600F0ABF800F083F8002801D00020CA
:1009A000ECE7384600F0A2F800F07AF8002801D011
:1009B0000020E3E7069800F099F800F071F80028AD
:1009C00001D00020DAE7079800F090F800F068F80E
:1009D000002801D00020D1E700F042F80A2000F002
:1009E000CFFC0120CAE7000010B5012210210C48FD
:1009F000FFF741FF012220210948FFF73CFF0322B6
:100A000010210748FFF737FF032220210448FFF792
:100A100032FF00F045FA01200249486310BD000092
:100A2000C04000504042005010B500F04FFA0A207C
:100A300000F0A6FC00F034FA0A2000F0A1FC01202E
:100A4000064948630A2000F09BFC00F039FA0A20AE
:100A500000F096FC00200149486310BD4042005060
:100A600010B500F033FA0A2000F08AFC00200B4990
:100A700048630A2000F084FC00F022FA0A2000F00B
:100A80007FFC0120054948630A2000F079FC00F052
:100A900007FA0A2000F074FC10BD0000404200502C
:100AA00008B50020009000F001FA01200E494863CB
:100AB0000BE00098401C00907D21090100988842BD
:100AC00003D9FFF7CDFF012008BD00F0E3F90028AE
:100AD000EFD10A2000F054FC0020034948630A20AB
:100AE00000F04EFC0020EFE74042005070B5044695
:100AF00000F0ECF90020134948630A2000F040FCA4
:100B000000251CE080202040C011002802D000F009
:100B1000C7F901E000F0D4F96006040E0A2000F0E5
:100B20002FFC0120074948630A2000F029FC00201F
:100B300004494863142000F023FC681CC5B2082D4A
:100B4000E0DB70BD404200501CB50121612000F087
:100B50001EFA0221612000F034FAFF207F210823D1
:100B600001220091019032216120FFF7F7FEFF2062
:100B70007F21092301220091019032216120FFF79A
:100B8000EDFEFF207F210A230122009101903221F6
:100B90006120FFF7E3FEFF207F210B23012200915C
:100BA000019032216120FFF7D9FEFF207F210C2325
:100BB00001220091019032216120FFF7CFFEFF203A
:100BC0007F210D2301220091019032216120FFF746
:100BD000C5FEFF207F210E230122009101903221CA
:100BE0006120FFF7BBFEFF207F210F230122009130
:100BF000019032216120FFF7B1FEFF207F211023F9
:100C000001220091019032216120FFF7A7FEFF2011
:100C10007F21112301220091019032216120FFF7F1
:100C20009DFEFF207F21122301220091019032219D
:100C30006120FFF793FEFF207F2113230122009103
:100C4000019032216120FFF789FEFF207F211423CC
:100C500001220091019032216120FFF77FFEFF20E9
:100C60007F21152301220091019032216120FFF79D
:100C700075FEFF207F211623012200910190322171
:100C80006120FFF76BFEFF207F21172301220091D7
:100C9000019032216120FFF761FEFF207F2119239F
:100CA00001220091019032216120FFF757FEFF20C1
:100CB0007F211A2301220091019032216120FFF748
:100CC0004DFEFF207F211B23012200910190322144
:100CD0006120FFF743FEFF207F211C2301220091AA
:100CE000019032216120FFF739FEFF207F211D2373
:100CF00001220091019032216120FFF72FFEFF2099
:100D00007F211E2301220091019032216120FFF7F3
:100D100025FEFF207F211F23012200910190322117
:100D20006120FFF71BFEFF207F212023012200917D
:100D3000019032216120FFF711FEFF207F21212346
:100D400001220091019032216120FFF707FEFF2070
:100D50007F21222301220091019032216120FFF79F
:100D6000FDFDFF207F2123230122009101903221EC
:100D70006120FFF7F3FDFF207F2124230122009152
:100D8000019032216120FFF7E9FDFF207F2125231B
:100D900001220091019032216120FFF7DFFDFF2049
:100DA0007F21262301220091019032216120FFF74B
:100DB000D5FDFF207F2127230122009101903221C0
:100DC0006120FFF7CBFDFF207F2128230122009126
:100DD000019032216120FFF7C1FD0121612000F067
:100DE000FDF833227321612000F005F90221612012
:100DF00000F0C0F80221612000F0D6F805220021A1
:100E0000612000F005F905220121612000F000F9C0
:100E100002216120FFF726FD1CBD000010B500284F
:100E200019DA1A4A03071B0F083B9B089B00D2588C
:100E30008307DC0EFF23A3409A438B071B0E840716
:100E4000E40EA3401A43114B0407240F083CA408E6
:100E5000A4001A5118E00E4A03231B02D21883087B
:100E60009B00D2588307DC0EFF23A3409A438B07D5
:100E70001B0E8407E40EA3401A43054B03242402EF
:100E80001B198408A4001A5110BD00001CED00E0DD
:100E900000E100E00148006BC0B2704740420050E2
:100EA00001200149086370474042005010B50022FC
:100EB00010210248FFF7DFFC10BD0000C0400050C9
:100EC00000200149086370474042005010B50122DC
:100ED00010210248FFF7CFFC10BD0000C0400050B9
:100EE00010B500BF06E059200C49086016200860C4
:100EF00088200860094800680128F4D100BFFFF786
:100F0000A3FC00F01BFAFFF741FA00F037F900BF2D
:100F100000200249086000BF10BD00000001005021
:100F20000B49020E92008958012282401143084A5F
:100F3000030E9B00D1501146020E920089580122E7
:100F400082409143024A030E9B00D150704700003B
:100F50000800005006E05920054908601620086086
:100F600088200860024800680128F4D1704700001A
:100F7000000100507CB505460C46002007230246C0
:100F80003221019400902846FFF7E8FC7CBD7CB537
:100F900005460C46002003230246322101940090AE
:100FA0002846FFF7DBFC7CBD7CB505460C460020DF
:100FB000182302463221019400902846FFF7CEFC08
:100FC0007CBD7CB505460C46002004230246322138
:100FD000019400902846FFF7C1FC7CBD7CB5054616
:100FE0000C46002006230246322101940090284638
:100FF000FFF7B4FC7CBD7CB506460C4615460523C0
:1010000000223221304601950094FFF7A7FC7CBDF9
:1010100070B506460C4615462B4622462A21304618
:10102000FFF769FC70BD00000348006940084000FC
:10103000014908617047000000E000E000B5084881
:10104000006800280AD006480068401E044908606D
:1010500008460068002801D1FFF7E6FF00BD000048
:101060000C00002010B50020C043C206D20E0121A2
:1010700091400D4A116000BF0C4C000A844200D917
:101080000EE02002000A401E094948610321081FA2
:10109000FFF7C4FE0020064988610720086100BFF1
:1010A000FFF7C2FF10BD000000E100E050C30000E8
:1010B00000E000E070B51248006945076D0FFFF7CA
:1010C0007FFA10490860022D03D0A8000E490C5881
:1010D00001E00C4804680A4880690007000F461CBC
:1010E00031462046FFF770F808490860084907486C
:1010F00000684A108018FFF767F80649086070BD5D
:1011000000020050080000202C1400000000002005
:1011100040420F00040000207047000010B501227B
:1011200002210348FFF7A7FB00200249486210BDD7
:10113000404000500042005070B504460D4616462F
:1011400000200449486232462946204600F0C0F893
:1011500070BD00000042005070B504460D461646B2
:1011600001200549486232462946204600F0CBF866
:1011700000200149486270BD0042005010B504488B
:10118000FFF770F9002211460148FFF719FB10BD67
:10119000113D802710B505200007406B0A49084023
:1011A0000521090748630846406B0321890208436B
:1011B0000521090748630548FFF7B2FEE12149020E
:1011C000034800F03BF810BDF3F3FFFF11000004EB
:1011D0000000154006484068012108430449486062
:1011E0000D2001218140034A116000BF70470000BB
:1011F0000000154000E100E010B5002400BF0B48DE
:10120000C069FF2101310840000A0028F7D03222CE
:1012100007490648FFF790FF01200649486205226A
:101220000549024800F06FF810BD000000001540AD
:10123000180000200042005010000020F0B585B0DA
:1012400004460D461E4801460EC9C0686E460EC6CD
:10125000039000271B484069032109060840060E39
:10126000002020630320E060A06817490840A060C8
:10127000012E04D1FFF724FAB1006A465050002D28
:101280001BD0B1006A4651586A0888182946FEF7F3
:101290009BFF871E0D4887420BD9B1006A46515803
:1012A000EA0088182946FEF78FFF0009801E606259
:1012B00003E0032000073843606205B0F0BD000082
:1012C0004C140000000200500FFFF0FFFFFF000071
:1012D00070B503460C46002111E0002506E06D1CA8
:1012E00001208007854201D3002070BD9869012646
:1012F000B60330400028F2D118686054491C91426E
:10130000EBD30846F1E770B503460C46002111E027
:10131000002506E06D1C01208007854201D30020D6
:1013200070BD98690126360730400028F2D0605C15
:101330001860491C9142EBD10846F1E70248034985
:1013400088600348486170470100010000020050B6
:101350000300000110B5FFF7FDFD074800682C21D0
:101360008843012108430449086000BF0020034965
:10137000086000BF10BD00000040004000010050A8
:1013800001B500BF0098411E00910028FAD108BDA8
:1013900010B5002100BF06E0044A00BF1346521EEC
:1013A000002BFBD1491C8142F6DB10BD8A200000D6
:1013B0001CB51AA103C901910090FFF791FDFFF739
:1013C0003BF8FEF7F1FFFFF7E5FEFFF7A7FEFFF79B
:1013D0000BFBFFF7B9FBFFF745FEFFF7FBFE1CE039
:1013E000012010494862052269460F48FFF7B4FE04
:1013F00000200C494862052269460B48FFF7ACFE05
:10140000FFF7A8FFFF20F530FFF7C2FF0548403087
:10141000806BC043034940318863E1E70102030464
:10142000050000000042005000001540001BB700FE
:101430000000000080F0FA02102700000000000009
:10144000000000000000000000805101001BB700F8
:10145000000000000000000000805101001BB700E8
:10146000000000000000000000805101001BB700D8
:101470000000000000000000008051019C140000EA
:10148000000000201800000004010000B414000057
:1014900018000020980200002001000080F0FA02ED
:1014A0003200000080F0FA02000000000B16212C30
:0414B0003700000001
:040000050000016591
:00000001FF
